{
  "_format": "hh-sol-artifact-1",
  "contractName": "Dispatcher",
  "sourceName": "contracts/Dispatcher.sol",
  "abi": [
    {
      "inputs": [
        {
          "internalType": "address",
          "name": "_verifier",
          "type": "address"
        }
      ],
      "stateMutability": "nonpayable",
      "type": "constructor"
    },
    {
      "anonymous": false,
      "inputs": [
        {
          "indexed": true,
          "internalType": "string",
          "name": "channelId",
          "type": "string"
        },
        {
          "indexed": true,
          "internalType": "address",
          "name": "portId",
          "type": "address"
        }
      ],
      "name": "CloseIbcChannel",
      "type": "event"
    },
    {
      "anonymous": false,
      "inputs": [
        {
          "indexed": true,
          "internalType": "string",
          "name": "channelId",
          "type": "string"
        },
        {
          "indexed": true,
          "internalType": "address",
          "name": "portId",
          "type": "address"
        },
        {
          "indexed": true,
          "internalType": "string",
          "name": "counterPartyChannelId",
          "type": "string"
        },
        {
          "indexed": false,
          "internalType": "string",
          "name": "counterPartyPortId",
          "type": "string"
        },
        {
          "indexed": false,
          "internalType": "string",
          "name": "counterPartyVersion",
          "type": "string"
        }
      ],
      "name": "ConnectIbcChannel",
      "type": "event"
    },
    {
      "anonymous": false,
      "inputs": [
        {
          "indexed": true,
          "internalType": "bytes32",
          "name": "srcChannelId",
          "type": "bytes32"
        },
        {
          "indexed": false,
          "internalType": "string",
          "name": "srcPortId",
          "type": "string"
        },
        {
          "indexed": true,
          "internalType": "bytes32",
          "name": "destChannelId",
          "type": "bytes32"
        },
        {
          "indexed": false,
          "internalType": "string",
          "name": "destPortId",
          "type": "string"
        },
        {
          "indexed": false,
          "internalType": "bytes",
          "name": "data",
          "type": "bytes"
        },
        {
          "indexed": false,
          "internalType": "uint64",
          "name": "sequence",
          "type": "uint64"
        }
      ],
      "name": "OnRecvPacket",
      "type": "event"
    },
    {
      "anonymous": false,
      "inputs": [
        {
          "indexed": true,
          "internalType": "string",
          "name": "connectionId",
          "type": "string"
        },
        {
          "indexed": true,
          "internalType": "address",
          "name": "connectionPortId",
          "type": "address"
        },
        {
          "indexed": false,
          "internalType": "string",
          "name": "counterPartyConnectionId",
          "type": "string"
        },
        {
          "indexed": false,
          "internalType": "string",
          "name": "counterPartyPortId",
          "type": "string"
        },
        {
          "indexed": false,
          "internalType": "string",
          "name": "version",
          "type": "string"
        }
      ],
      "name": "OpenIbcChannel",
      "type": "event"
    },
    {
      "anonymous": false,
      "inputs": [
        {
          "indexed": true,
          "internalType": "address",
          "name": "previousOwner",
          "type": "address"
        },
        {
          "indexed": true,
          "internalType": "address",
          "name": "newOwner",
          "type": "address"
        }
      ],
      "name": "OwnershipTransferred",
      "type": "event"
    },
    {
      "anonymous": false,
      "inputs": [
        {
          "indexed": true,
          "internalType": "address",
          "name": "portId",
          "type": "address"
        },
        {
          "indexed": true,
          "internalType": "bytes32",
          "name": "channelId",
          "type": "bytes32"
        },
        {
          "indexed": false,
          "internalType": "bytes",
          "name": "packet",
          "type": "bytes"
        },
        {
          "indexed": false,
          "internalType": "uint64",
          "name": "timeoutBlockTimestamp",
          "type": "uint64"
        }
      ],
      "name": "SendIbcPacket",
      "type": "event"
    },
    {
      "inputs": [
        {
          "internalType": "string",
          "name": "",
          "type": "string"
        }
      ],
      "name": "clients",
      "outputs": [
        {
          "internalType": "bytes",
          "name": "clientState",
          "type": "bytes"
        },
        {
          "internalType": "bytes",
          "name": "consensusState",
          "type": "bytes"
        }
      ],
      "stateMutability": "view",
      "type": "function"
    },
    {
      "inputs": [
        {
          "internalType": "string",
          "name": "channelId",
          "type": "string"
        }
      ],
      "name": "closeIbcChannel",
      "outputs": [],
      "stateMutability": "nonpayable",
      "type": "function"
    },
    {
      "inputs": [
        {
          "internalType": "string",
          "name": "channelId",
          "type": "string"
        },
        {
          "internalType": "string",
          "name": "counterPartyChannelId",
          "type": "string"
        },
        {
          "internalType": "string",
          "name": "counterPartyPortId",
          "type": "string"
        },
        {
          "internalType": "string",
          "name": "counterPartyVersion",
          "type": "string"
        }
      ],
      "name": "connectIbcChannel",
      "outputs": [],
      "stateMutability": "nonpayable",
      "type": "function"
    },
    {
      "inputs": [
        {
          "internalType": "string",
          "name": "clientId",
          "type": "string"
        },
        {
          "internalType": "bytes",
          "name": "clientState",
          "type": "bytes"
        },
        {
          "internalType": "bytes",
          "name": "consensusState",
          "type": "bytes"
        }
      ],
      "name": "createClient",
      "outputs": [],
      "stateMutability": "nonpayable",
      "type": "function"
    },
    {
      "inputs": [
        {
          "internalType": "contract IbcReceiver",
          "name": "receiver",
          "type": "address"
        },
        {
          "components": [
            {
              "components": [
                {
                  "internalType": "string",
                  "name": "portId",
                  "type": "string"
                },
                {
                  "internalType": "bytes32",
                  "name": "channelId",
                  "type": "bytes32"
                }
              ],
              "internalType": "struct IbcEndpoint",
              "name": "src",
              "type": "tuple"
            },
            {
              "components": [
                {
                  "internalType": "string",
                  "name": "portId",
                  "type": "string"
                },
                {
                  "internalType": "bytes32",
                  "name": "channelId",
                  "type": "bytes32"
                }
              ],
              "internalType": "struct IbcEndpoint",
              "name": "dest",
              "type": "tuple"
            },
            {
              "internalType": "uint64",
              "name": "sequence",
              "type": "uint64"
            },
            {
              "internalType": "bytes",
              "name": "data",
              "type": "bytes"
            },
            {
              "components": [
                {
                  "internalType": "uint64",
                  "name": "block",
                  "type": "uint64"
                },
                {
                  "internalType": "uint64",
                  "name": "timestamp",
                  "type": "uint64"
                }
              ],
              "internalType": "struct IbcTimeout",
              "name": "timeout",
              "type": "tuple"
            }
          ],
          "internalType": "struct IbcPacket",
          "name": "packet",
          "type": "tuple"
        },
        {
          "internalType": "bytes",
          "name": "acknowledgement",
          "type": "bytes"
        },
        {
          "components": [
            {
              "internalType": "bytes",
              "name": "keyPath",
              "type": "bytes"
            },
            {
              "internalType": "bytes",
              "name": "value",
              "type": "bytes"
            },
            {
              "internalType": "bytes",
              "name": "proof",
              "type": "bytes"
            }
          ],
          "internalType": "struct Proof",
          "name": "proof",
          "type": "tuple"
        }
      ],
      "name": "onAcknowledgementPacket",
      "outputs": [],
      "stateMutability": "nonpayable",
      "type": "function"
    },
    {
      "inputs": [
        {
          "internalType": "contract IbcReceiver",
          "name": "receiver",
          "type": "address"
        },
        {
          "internalType": "string",
          "name": "channelId",
          "type": "string"
        },
        {
          "components": [
            {
              "internalType": "bytes",
              "name": "keyPath",
              "type": "bytes"
            },
            {
              "internalType": "bytes",
              "name": "value",
              "type": "bytes"
            },
            {
              "internalType": "bytes",
              "name": "proof",
              "type": "bytes"
            }
          ],
          "internalType": "struct Proof",
          "name": "proof",
          "type": "tuple"
        },
        {
          "internalType": "string",
          "name": "error",
          "type": "string"
        }
      ],
      "name": "onCloseIbcChannel",
      "outputs": [],
      "stateMutability": "nonpayable",
      "type": "function"
    },
    {
      "inputs": [
        {
          "internalType": "contract IbcReceiver",
          "name": "receiver",
          "type": "address"
        },
        {
          "internalType": "string",
          "name": "channelId",
          "type": "string"
        },
        {
          "components": [
            {
              "internalType": "bytes",
              "name": "keyPath",
              "type": "bytes"
            },
            {
              "internalType": "bytes",
              "name": "value",
              "type": "bytes"
            },
            {
              "internalType": "bytes",
              "name": "proof",
              "type": "bytes"
            }
          ],
          "internalType": "struct Proof",
          "name": "proof",
          "type": "tuple"
        },
        {
          "internalType": "string",
          "name": "error",
          "type": "string"
        }
      ],
      "name": "onConnectIbcChannel",
      "outputs": [],
      "stateMutability": "nonpayable",
      "type": "function"
    },
    {
      "inputs": [
        {
          "internalType": "contract IbcReceiver",
          "name": "receiver",
          "type": "address"
        },
        {
          "internalType": "string",
          "name": "channelId",
          "type": "string"
        },
        {
          "internalType": "string",
          "name": "version",
          "type": "string"
        },
        {
          "components": [
            {
              "internalType": "bytes",
              "name": "keyPath",
              "type": "bytes"
            },
            {
              "internalType": "bytes",
              "name": "value",
              "type": "bytes"
            },
            {
              "internalType": "bytes",
              "name": "proof",
              "type": "bytes"
            }
          ],
          "internalType": "struct Proof",
          "name": "proof",
          "type": "tuple"
        },
        {
          "internalType": "string",
          "name": "error",
          "type": "string"
        }
      ],
      "name": "onOpenIbcChannel",
      "outputs": [],
      "stateMutability": "nonpayable",
      "type": "function"
    },
    {
      "inputs": [
        {
          "internalType": "contract IbcReceiver",
          "name": "receiver",
          "type": "address"
        },
        {
          "components": [
            {
              "components": [
                {
                  "internalType": "string",
                  "name": "portId",
                  "type": "string"
                },
                {
                  "internalType": "bytes32",
                  "name": "channelId",
                  "type": "bytes32"
                }
              ],
              "internalType": "struct IbcEndpoint",
              "name": "src",
              "type": "tuple"
            },
            {
              "components": [
                {
                  "internalType": "string",
                  "name": "portId",
                  "type": "string"
                },
                {
                  "internalType": "bytes32",
                  "name": "channelId",
                  "type": "bytes32"
                }
              ],
              "internalType": "struct IbcEndpoint",
              "name": "dest",
              "type": "tuple"
            },
            {
              "internalType": "uint64",
              "name": "sequence",
              "type": "uint64"
            },
            {
              "internalType": "bytes",
              "name": "data",
              "type": "bytes"
            },
            {
              "components": [
                {
                  "internalType": "uint64",
                  "name": "block",
                  "type": "uint64"
                },
                {
                  "internalType": "uint64",
                  "name": "timestamp",
                  "type": "uint64"
                }
              ],
              "internalType": "struct IbcTimeout",
              "name": "timeout",
              "type": "tuple"
            }
          ],
          "internalType": "struct IbcPacket",
          "name": "packet",
          "type": "tuple"
        },
        {
          "components": [
            {
              "internalType": "bytes",
              "name": "keyPath",
              "type": "bytes"
            },
            {
              "internalType": "bytes",
              "name": "value",
              "type": "bytes"
            },
            {
              "internalType": "bytes",
              "name": "proof",
              "type": "bytes"
            }
          ],
          "internalType": "struct Proof",
          "name": "proof",
          "type": "tuple"
        }
      ],
      "name": "onRecvPacket",
      "outputs": [],
      "stateMutability": "nonpayable",
      "type": "function"
    },
    {
      "inputs": [
        {
          "internalType": "contract IbcReceiver",
          "name": "receiver",
          "type": "address"
        },
        {
          "components": [
            {
              "components": [
                {
                  "internalType": "string",
                  "name": "portId",
                  "type": "string"
                },
                {
                  "internalType": "bytes32",
                  "name": "channelId",
                  "type": "bytes32"
                }
              ],
              "internalType": "struct IbcEndpoint",
              "name": "src",
              "type": "tuple"
            },
            {
              "components": [
                {
                  "internalType": "string",
                  "name": "portId",
                  "type": "string"
                },
                {
                  "internalType": "bytes32",
                  "name": "channelId",
                  "type": "bytes32"
                }
              ],
              "internalType": "struct IbcEndpoint",
              "name": "dest",
              "type": "tuple"
            },
            {
              "internalType": "uint64",
              "name": "sequence",
              "type": "uint64"
            },
            {
              "internalType": "bytes",
              "name": "data",
              "type": "bytes"
            },
            {
              "components": [
                {
                  "internalType": "uint64",
                  "name": "block",
                  "type": "uint64"
                },
                {
                  "internalType": "uint64",
                  "name": "timestamp",
                  "type": "uint64"
                }
              ],
              "internalType": "struct IbcTimeout",
              "name": "timeout",
              "type": "tuple"
            }
          ],
          "internalType": "struct IbcPacket",
          "name": "packet",
          "type": "tuple"
        },
        {
          "components": [
            {
              "internalType": "bytes",
              "name": "keyPath",
              "type": "bytes"
            },
            {
              "internalType": "bytes",
              "name": "value",
              "type": "bytes"
            },
            {
              "internalType": "bytes",
              "name": "proof",
              "type": "bytes"
            }
          ],
          "internalType": "struct Proof",
          "name": "proof",
          "type": "tuple"
        }
      ],
      "name": "onTimeoutPacket",
      "outputs": [],
      "stateMutability": "nonpayable",
      "type": "function"
    },
    {
      "inputs": [
        {
          "internalType": "string",
          "name": "connectionId",
          "type": "string"
        },
        {
          "internalType": "string",
          "name": "counterPartyConnectionId",
          "type": "string"
        },
        {
          "internalType": "string",
          "name": "counterPartyPortId",
          "type": "string"
        },
        {
          "internalType": "enum IbcOrder",
          "name": "order",
          "type": "uint8"
        },
        {
          "internalType": "string",
          "name": "version",
          "type": "string"
        }
      ],
      "name": "openIbcChannel",
      "outputs": [],
      "stateMutability": "nonpayable",
      "type": "function"
    },
    {
      "inputs": [],
      "name": "owner",
      "outputs": [
        {
          "internalType": "address",
          "name": "",
          "type": "address"
        }
      ],
      "stateMutability": "view",
      "type": "function"
    },
    {
      "inputs": [],
      "name": "renounceOwnership",
      "outputs": [],
      "stateMutability": "nonpayable",
      "type": "function"
    },
    {
      "inputs": [
        {
          "internalType": "bytes32",
          "name": "channelId",
          "type": "bytes32"
        },
        {
          "internalType": "bytes",
          "name": "packet",
          "type": "bytes"
        },
        {
          "internalType": "uint64",
          "name": "timeoutBlockTimestamp",
          "type": "uint64"
        }
      ],
      "name": "sendIbcPacket",
      "outputs": [],
      "stateMutability": "nonpayable",
      "type": "function"
    },
    {
      "inputs": [
        {
          "internalType": "address",
          "name": "newOwner",
          "type": "address"
        }
      ],
      "name": "transferOwnership",
      "outputs": [],
      "stateMutability": "nonpayable",
      "type": "function"
    },
    {
      "inputs": [
        {
          "internalType": "string",
          "name": "clientId",
          "type": "string"
        },
        {
          "internalType": "bytes",
          "name": "consensusState",
          "type": "bytes"
        }
      ],
      "name": "updateClient",
      "outputs": [],
      "stateMutability": "nonpayable",
      "type": "function"
    },
    {
      "inputs": [],
      "name": "verifier",
      "outputs": [
        {
          "internalType": "contract ZKMintVerifier",
          "name": "",
          "type": "address"
        }
      ],
      "stateMutability": "view",
      "type": "function"
    }
  ],
  "bytecode": "0x60806040523480156200001157600080fd5b50604051620029a4380380620029a48339818101604052810190620000379190620001d5565b620000576200004b6200009f60201b60201c565b620000a760201b60201c565b80600160006101000a81548173ffffffffffffffffffffffffffffffffffffffff021916908373ffffffffffffffffffffffffffffffffffffffff1602179055505062000207565b600033905090565b60008060009054906101000a900473ffffffffffffffffffffffffffffffffffffffff169050816000806101000a81548173ffffffffffffffffffffffffffffffffffffffff021916908373ffffffffffffffffffffffffffffffffffffffff1602179055508173ffffffffffffffffffffffffffffffffffffffff168173ffffffffffffffffffffffffffffffffffffffff167f8be0079c531659141344cd1fd0a4f28419497f9722a3daafe3b4186f6b6457e060405160405180910390a35050565b600080fd5b600073ffffffffffffffffffffffffffffffffffffffff82169050919050565b60006200019d8262000170565b9050919050565b620001af8162000190565b8114620001bb57600080fd5b50565b600081519050620001cf81620001a4565b92915050565b600060208284031215620001ee57620001ed6200016b565b5b6000620001fe84828501620001be565b91505092915050565b61278d80620002176000396000f3fe608060405234801561001057600080fd5b506004361061010b5760003560e01c8063715018a6116100a2578063c51289b511610071578063c51289b514610267578063ca1288ed14610283578063dc4431001461029f578063e6815c12146102bb578063f2fde38b146102d75761010b565b8063715018a6146102075780638b116848146102115780638da5cb5b1461022d578063a878e1ba1461024b5761010b565b806329393014116100de57806329393014146101955780632b7ac3f3146101b15780636fbf8079146101cf57806370c5dd53146101eb5761010b565b806303941ec51461011057806320ba1e9f1461012c578063260012e81461015d5780632629636b14610179575b600080fd5b61012a6004803603810190610125919061128d565b6102f3565b005b6101466004803603810190610141919061148e565b6103ad565b60405161015492919061155f565b60405180910390f35b61017760048036038101906101729190611596565b6104f7565b005b610193600480360381019061018e9190611677565b610609565b005b6101af60048036038101906101aa9190611750565b61077d565b005b6101b96107f8565b6040516101c691906118ab565b60405180910390f35b6101e960048036038101906101e491906118c6565b61081e565b005b61020560048036038101906102009190611947565b6109b8565b005b61020f610a79565b005b61022b60048036038101906102269190611947565b610a8d565b005b610235610b4e565b6040516102429190611a19565b60405180910390f35b61026560048036038101906102609190611a34565b610b77565b005b610281600480360381019061027c9190611ba2565b610c3e565b005b61029d60048036038101906102989190611c16565b610c97565b005b6102b960048036038101906102b49190611596565b610d25565b005b6102d560048036038101906102d09190611cff565b610ddd565b005b6102f160048036038101906102ec9190611d78565b610e3c565b005b6102fc81610ec0565b61033b576040517f08c379a000000000000000000000000000000000000000000000000000000000815260040161033290611e02565b60405180910390fd5b8473ffffffffffffffffffffffffffffffffffffffff1663f45cf5e4856040518263ffffffff1660e01b8152600401610374919061212e565b600060405180830381600087803b15801561038e57600080fd5b505af11580156103a2573d6000803e3d6000fd5b505050505050505050565b6002818051602081018201805184825260208301602085012081835280955050505050506000915090508060000180546103e69061217f565b80601f01602080910402602001604051908101604052809291908181526020018280546104129061217f565b801561045f5780601f106104345761010080835404028352916020019161045f565b820191906000526020600020905b81548152906001019060200180831161044257829003601f168201915b5050505050908060010180546104749061217f565b80601f01602080910402602001604051908101604052809291908181526020018280546104a09061217f565b80156104ed5780601f106104c2576101008083540402835291602001916104ed565b820191906000526020600020905b8154815290600101906020018083116104d057829003601f168201915b5050505050905082565b61050081610ec0565b61053f576040517f08c379a000000000000000000000000000000000000000000000000000000000815260040161053690611e02565b60405180910390fd5b81806020019061054f91906121c0565b6020013582806000019061056391906121c0565b602001357f080631928e492258b6a102fc2ab3e0a8dfcb747ab0885c25f9cb7a8d4862103684806000019061059891906121c0565b80600001906105a791906121e8565b8680602001906105b791906121c0565b80600001906105c691906121e8565b8880606001906105d6919061224b565b8a60400160208101906105e991906122ae565b6040516105fc9796959493929190612344565b60405180910390a3505050565b60006002878760405161061d9291906123d4565b908152602001604051809103902060000180546106399061217f565b90501461067b576040517f08c379a00000000000000000000000000000000000000000000000000000000081526004016106729061245f565b60405180910390fd5b604051806040016040528085858080601f016020809104026020016040519081016040528093929190818152602001838380828437600081840152601f19601f82011690508083019250505050505050815260200183838080601f016020809104026020016040519081016040528093929190818152602001838380828437600081840152601f19601f820116905080830192505050505050508152506002878760405161072a9291906123d4565b90815260200160405180910390206000820151816000019080519060200190610754929190611038565b506020820151816001019080519060200190610771929190611038565b50905050505050505050565b3373ffffffffffffffffffffffffffffffffffffffff1689896040516107a49291906123d4565b60405180910390207f9ce02b1b641bb5e30c72716c9c859589507ea98e427becc1da24ef96341cfdc78989898988886040516107e59695949392919061247f565b60405180910390a3505050505050505050565b600160009054906101000a900473ffffffffffffffffffffffffffffffffffffffff1681565b6000600285856040516108329291906123d4565b9081526020016040518091039020600001805461084e9061217f565b90501415610891576040517f08c379a000000000000000000000000000000000000000000000000000000000815260040161088890612543565b60405180910390fd5b600160009054906101000a900473ffffffffffffffffffffffffffffffffffffffff1673ffffffffffffffffffffffffffffffffffffffff16638e760afe83836040518363ffffffff1660e01b81526004016108ee929190612563565b602060405180830381600087803b15801561090857600080fd5b505af115801561091c573d6000803e3d6000fd5b505050506040513d601f19601f8201168201806040525081019061094091906125bf565b61097f576040517f08c379a000000000000000000000000000000000000000000000000000000000815260040161097690611e02565b60405180910390fd5b8181600286866040516109939291906123d4565b908152602001604051809103902060010191906109b19291906110be565b5050505050565b6109c183610ec0565b610a00576040517f08c379a00000000000000000000000000000000000000000000000000000000081526004016109f790611e02565b60405180910390fd5b8573ffffffffffffffffffffffffffffffffffffffff16630a845081868685856040518563ffffffff1660e01b8152600401610a3f94939291906125ec565b600060405180830381600087803b158015610a5957600080fd5b505af1158015610a6d573d6000803e3d6000fd5b50505050505050505050565b610a81610eee565b610a8b6000610f6c565b565b610a9683610ec0565b610ad5576040517f08c379a0000000000000000000000000000000000000000000000000000000008152600401610acc90611e02565b60405180910390fd5b8573ffffffffffffffffffffffffffffffffffffffff16636afd6174868685856040518563ffffffff1660e01b8152600401610b1494939291906125ec565b600060405180830381600087803b158015610b2e57600080fd5b505af1158015610b42573d6000803e3d6000fd5b50505050505050505050565b60008060009054906101000a900473ffffffffffffffffffffffffffffffffffffffff16905090565b610b8083610ec0565b610bbf576040517f08c379a0000000000000000000000000000000000000000000000000000000008152600401610bb690611e02565b60405180910390fd5b8773ffffffffffffffffffffffffffffffffffffffff16632719503e8888888887876040518763ffffffff1660e01b8152600401610c029695949392919061247f565b600060405180830381600087803b158015610c1c57600080fd5b505af1158015610c30573d6000803e3d6000fd5b505050505050505050505050565b833373ffffffffffffffffffffffffffffffffffffffff167f3623db14ea518e01acc6d3cb8b5dea34b853de4b455571275bacf9225f8a28dd858585604051610c8993929190612627565b60405180910390a350505050565b8585604051610ca79291906123d4565b60405180910390203373ffffffffffffffffffffffffffffffffffffffff168989604051610cd69291906123d4565b60405180910390207fd38dbe544e1f1277b020a61acc0dd2cf9ddcf99471a49a288a3ada57f3206a7387878787604051610d1394939291906125ec565b60405180910390a45050505050505050565b610d2e81610ec0565b610d6d576040517f08c379a0000000000000000000000000000000000000000000000000000000008152600401610d6490611e02565b60405180910390fd5b8273ffffffffffffffffffffffffffffffffffffffff1663b33c2577836040518263ffffffff1660e01b8152600401610da6919061212e565b600060405180830381600087803b158015610dc057600080fd5b505af1158015610dd4573d6000803e3d6000fd5b50505050505050565b3373ffffffffffffffffffffffffffffffffffffffff168282604051610e049291906123d4565b60405180910390207f18280cf62c6d3f3519d7cff5c5b7e91021dd17a0278ba5668976d82bdc9faa9e60405160405180910390a35050565b610e44610eee565b600073ffffffffffffffffffffffffffffffffffffffff168173ffffffffffffffffffffffffffffffffffffffff161415610eb4576040517f08c379a0000000000000000000000000000000000000000000000000000000008152600401610eab906126cb565b60405180910390fd5b610ebd81610f6c565b50565b600080828060400190610ed3919061224b565b90501415610ee45760009050610ee9565b600190505b919050565b610ef6611030565b73ffffffffffffffffffffffffffffffffffffffff16610f14610b4e565b73ffffffffffffffffffffffffffffffffffffffff1614610f6a576040517f08c379a0000000000000000000000000000000000000000000000000000000008152600401610f6190612737565b60405180910390fd5b565b60008060009054906101000a900473ffffffffffffffffffffffffffffffffffffffff169050816000806101000a81548173ffffffffffffffffffffffffffffffffffffffff021916908373ffffffffffffffffffffffffffffffffffffffff1602179055508173ffffffffffffffffffffffffffffffffffffffff168173ffffffffffffffffffffffffffffffffffffffff167f8be0079c531659141344cd1fd0a4f28419497f9722a3daafe3b4186f6b6457e060405160405180910390a35050565b600033905090565b8280546110449061217f565b90600052602060002090601f01602090048101928261106657600085556110ad565b82601f1061107f57805160ff19168380011785556110ad565b828001600101855582156110ad579182015b828111156110ac578251825591602001919060010190611091565b5b5090506110ba9190611144565b5090565b8280546110ca9061217f565b90600052602060002090601f0160209004810192826110ec5760008555611133565b82601f1061110557803560ff1916838001178555611133565b82800160010185558215611133579182015b82811115611132578235825591602001919060010190611117565b5b5090506111409190611144565b5090565b5b8082111561115d576000816000905550600101611145565b5090565b6000604051905090565b600080fd5b600080fd5b600073ffffffffffffffffffffffffffffffffffffffff82169050919050565b60006111a082611175565b9050919050565b60006111b282611195565b9050919050565b6111c2816111a7565b81146111cd57600080fd5b50565b6000813590506111df816111b9565b92915050565b600080fd5b600060c08284031215611200576111ff6111e5565b5b81905092915050565b600080fd5b600080fd5b600080fd5b60008083601f84011261122e5761122d611209565b5b8235905067ffffffffffffffff81111561124b5761124a61120e565b5b60208301915083600182028301111561126757611266611213565b5b9250929050565b600060608284031215611284576112836111e5565b5b81905092915050565b6000806000806000608086880312156112a9576112a861116b565b5b60006112b7888289016111d0565b955050602086013567ffffffffffffffff8111156112d8576112d7611170565b5b6112e4888289016111ea565b945050604086013567ffffffffffffffff81111561130557611304611170565b5b61131188828901611218565b9350935050606086013567ffffffffffffffff81111561133457611333611170565b5b6113408882890161126e565b9150509295509295909350565b600080fd5b6000601f19601f8301169050919050565b7f4e487b7100000000000000000000000000000000000000000000000000000000600052604160045260246000fd5b61139b82611352565b810181811067ffffffffffffffff821117156113ba576113b9611363565b5b80604052505050565b60006113cd611161565b90506113d98282611392565b919050565b600067ffffffffffffffff8211156113f9576113f8611363565b5b61140282611352565b9050602081019050919050565b82818337600083830152505050565b600061143161142c846113de565b6113c3565b90508281526020810184848401111561144d5761144c61134d565b5b61145884828561140f565b509392505050565b600082601f83011261147557611474611209565b5b813561148584826020860161141e565b91505092915050565b6000602082840312156114a4576114a361116b565b5b600082013567ffffffffffffffff8111156114c2576114c1611170565b5b6114ce84828501611460565b91505092915050565b600081519050919050565b600082825260208201905092915050565b60005b838110156115115780820151818401526020810190506114f6565b83811115611520576000848401525b50505050565b6000611531826114d7565b61153b81856114e2565b935061154b8185602086016114f3565b61155481611352565b840191505092915050565b600060408201905081810360008301526115798185611526565b9050818103602083015261158d8184611526565b90509392505050565b6000806000606084860312156115af576115ae61116b565b5b60006115bd868287016111d0565b935050602084013567ffffffffffffffff8111156115de576115dd611170565b5b6115ea868287016111ea565b925050604084013567ffffffffffffffff81111561160b5761160a611170565b5b6116178682870161126e565b9150509250925092565b60008083601f84011261163757611636611209565b5b8235905067ffffffffffffffff8111156116545761165361120e565b5b6020830191508360018202830111156116705761166f611213565b5b9250929050565b600080600080600080606087890312156116945761169361116b565b5b600087013567ffffffffffffffff8111156116b2576116b1611170565b5b6116be89828a01611621565b9650965050602087013567ffffffffffffffff8111156116e1576116e0611170565b5b6116ed89828a01611218565b9450945050604087013567ffffffffffffffff8111156117105761170f611170565b5b61171c89828a01611218565b92509250509295509295509295565b6002811061173857600080fd5b50565b60008135905061174a8161172b565b92915050565b600080600080600080600080600060a08a8c0312156117725761177161116b565b5b60008a013567ffffffffffffffff8111156117905761178f611170565b5b61179c8c828d01611621565b995099505060208a013567ffffffffffffffff8111156117bf576117be611170565b5b6117cb8c828d01611621565b975097505060408a013567ffffffffffffffff8111156117ee576117ed611170565b5b6117fa8c828d01611621565b9550955050606061180d8c828d0161173b565b93505060808a013567ffffffffffffffff81111561182e5761182d611170565b5b61183a8c828d01611621565b92509250509295985092959850929598565b6000819050919050565b600061187161186c61186784611175565b61184c565b611175565b9050919050565b600061188382611856565b9050919050565b600061189582611878565b9050919050565b6118a58161188a565b82525050565b60006020820190506118c0600083018461189c565b92915050565b600080600080604085870312156118e0576118df61116b565b5b600085013567ffffffffffffffff8111156118fe576118fd611170565b5b61190a87828801611621565b9450945050602085013567ffffffffffffffff81111561192d5761192c611170565b5b61193987828801611218565b925092505092959194509250565b600080600080600080608087890312156119645761196361116b565b5b600061197289828a016111d0565b965050602087013567ffffffffffffffff81111561199357611992611170565b5b61199f89828a01611621565b9550955050604087013567ffffffffffffffff8111156119c2576119c1611170565b5b6119ce89828a0161126e565b935050606087013567ffffffffffffffff8111156119ef576119ee611170565b5b6119fb89828a01611621565b92509250509295509295509295565b611a1381611195565b82525050565b6000602082019050611a2e6000830184611a0a565b92915050565b60008060008060008060008060a0898b031215611a5457611a5361116b565b5b6000611a628b828c016111d0565b985050602089013567ffffffffffffffff811115611a8357611a82611170565b5b611a8f8b828c01611621565b9750975050604089013567ffffffffffffffff811115611ab257611ab1611170565b5b611abe8b828c01611621565b9550955050606089013567ffffffffffffffff811115611ae157611ae0611170565b5b611aed8b828c0161126e565b935050608089013567ffffffffffffffff811115611b0e57611b0d611170565b5b611b1a8b828c01611621565b92509250509295985092959890939650565b6000819050919050565b611b3f81611b2c565b8114611b4a57600080fd5b50565b600081359050611b5c81611b36565b92915050565b600067ffffffffffffffff82169050919050565b611b7f81611b62565b8114611b8a57600080fd5b50565b600081359050611b9c81611b76565b92915050565b60008060008060608587031215611bbc57611bbb61116b565b5b6000611bca87828801611b4d565b945050602085013567ffffffffffffffff811115611beb57611bea611170565b5b611bf787828801611218565b93509350506040611c0a87828801611b8d565b91505092959194509250565b6000806000806000806000806080898b031215611c3657611c3561116b565b5b600089013567ffffffffffffffff811115611c5457611c53611170565b5b611c608b828c01611621565b9850985050602089013567ffffffffffffffff811115611c8357611c82611170565b5b611c8f8b828c01611621565b9650965050604089013567ffffffffffffffff811115611cb257611cb1611170565b5b611cbe8b828c01611621565b9450945050606089013567ffffffffffffffff811115611ce157611ce0611170565b5b611ced8b828c01611621565b92509250509295985092959890939650565b60008060208385031215611d1657611d1561116b565b5b600083013567ffffffffffffffff811115611d3457611d33611170565b5b611d4085828601611621565b92509250509250929050565b611d5581611195565b8114611d6057600080fd5b50565b600081359050611d7281611d4c565b92915050565b600060208284031215611d8e57611d8d61116b565b5b6000611d9c84828501611d63565b91505092915050565b600082825260208201905092915050565b7f50726f6f6620766572696669636174696f6e206661696c656400000000000000600082015250565b6000611dec601983611da5565b9150611df782611db6565b602082019050919050565b60006020820190508181036000830152611e1b81611ddf565b9050919050565b600080fd5b600082356001604003833603038112611e4357611e42611e22565b5b82810191505092915050565b600080fd5b600080fd5b60008083356001602003843603038112611e7657611e75611e22565b5b83810192508235915060208301925067ffffffffffffffff821115611e9e57611e9d611e4f565b5b600182023603841315611eb457611eb3611e54565b5b509250929050565b600082825260208201905092915050565b6000611ed98385611ebc565b9350611ee683858461140f565b611eef83611352565b840190509392505050565b6000611f096020840184611b4d565b905092915050565b611f1a81611b2c565b82525050565b600060408301611f336000840184611e59565b8583036000870152611f46838284611ecd565b92505050611f576020840184611efa565b611f646020860182611f11565b508091505092915050565b6000611f7e6020840184611b8d565b905092915050565b611f8f81611b62565b82525050565b60008083356001602003843603038112611fb257611fb1611e22565b5b83810192508235915060208301925067ffffffffffffffff821115611fda57611fd9611e4f565b5b600182023603841315611ff057611fef611e54565b5b509250929050565b600082825260208201905092915050565b60006120158385611ff8565b935061202283858461140f565b61202b83611352565b840190509392505050565b600082905092915050565b604082016120526000830183611f6f565b61205f6000850182611f86565b5061206d6020830183611f6f565b61207a6020850182611f86565b50505050565b600060c083016120936000840184611e27565b84820360008601526120a58282611f20565b9150506120b56020840184611e27565b84820360208601526120c78282611f20565b9150506120d76040840184611f6f565b6120e46040860182611f86565b506120f26060840184611f95565b8583036060870152612105838284612009565b925050506121166080840184612036565b6121236080860182612041565b508091505092915050565b600060208201905081810360008301526121488184612080565b905092915050565b7f4e487b7100000000000000000000000000000000000000000000000000000000600052602260045260246000fd5b6000600282049050600182168061219757607f821691505b602082108114156121ab576121aa612150565b5b50919050565b600080fd5b600080fd5b600080fd5b6000823560016040038336030381126121dc576121db6121b1565b5b80830191505092915050565b60008083356001602003843603038112612205576122046121b1565b5b80840192508235915067ffffffffffffffff821115612227576122266121b6565b5b602083019250600182023603831315612243576122426121bb565b5b509250929050565b60008083356001602003843603038112612268576122676121b1565b5b80840192508235915067ffffffffffffffff82111561228a576122896121b6565b5b6020830192506001820236038313156122a6576122a56121bb565b5b509250929050565b6000602082840312156122c4576122c361116b565b5b60006122d284828501611b8d565b91505092915050565b60006122e78385611da5565b93506122f483858461140f565b6122fd83611352565b840190509392505050565b600061231483856114e2565b935061232183858461140f565b61232a83611352565b840190509392505050565b61233e81611b62565b82525050565b6000608082019050818103600083015261235f81898b6122db565b905081810360208301526123748187896122db565b90508181036040830152612389818587612308565b90506123986060830184612335565b98975050505050505050565b600081905092915050565b60006123bb83856123a4565b93506123c883858461140f565b82840190509392505050565b60006123e18284866123af565b91508190509392505050565b7f436c69656e742077697468207468697320494420616c7265616479206578697360008201527f7473000000000000000000000000000000000000000000000000000000000000602082015250565b6000612449602283611da5565b9150612454826123ed565b604082019050919050565b600060208201905081810360008301526124788161243c565b9050919050565b6000606082019050818103600083015261249a81888a6122db565b905081810360208301526124af8186886122db565b905081810360408301526124c48184866122db565b9050979650505050505050565b7f436c69656e742077697468207468697320494420646f65736e2774206578697360008201527f7400000000000000000000000000000000000000000000000000000000000000602082015250565b600061252d602183611da5565b9150612538826124d1565b604082019050919050565b6000602082019050818103600083015261255c81612520565b9050919050565b6000602082019050818103600083015261257e818486612308565b90509392505050565b60008115159050919050565b61259c81612587565b81146125a757600080fd5b50565b6000815190506125b981612593565b92915050565b6000602082840312156125d5576125d461116b565b5b60006125e3848285016125aa565b91505092915050565b600060408201905081810360008301526126078186886122db565b9050818103602083015261261c8184866122db565b905095945050505050565b60006040820190508181036000830152612642818587612308565b90506126516020830184612335565b949350505050565b7f4f776e61626c653a206e6577206f776e657220697320746865207a65726f206160008201527f6464726573730000000000000000000000000000000000000000000000000000602082015250565b60006126b5602683611da5565b91506126c082612659565b604082019050919050565b600060208201905081810360008301526126e4816126a8565b9050919050565b7f4f776e61626c653a2063616c6c6572206973206e6f7420746865206f776e6572600082015250565b6000612721602083611da5565b915061272c826126eb565b602082019050919050565b6000602082019050818103600083015261275081612714565b905091905056fea2646970667358221220b06b6530d292c1e02fb6b77c14ed213ce44e07ea16295e91993540f6ce1d48bf64736f6c63430008090033",
  "linkReferences": {},
  "deployedLinkReferences": {}
}